:020000040000FA
:0400000048EF04F0D1
:100800000043726973746F62616C000012EF04F050
:1008100002C0F6FF03C0F7FF0800F5503DEC04F0FE
:10082000024A032A02C0F6FF03C0F7FF0800F55092
:100830000009D8A41EEF04F020EF04F008EF04F044
:1008400012001F0E31EC04F0430E3DEC04F0010EDB
:10085000026E080E036E06EC04F02DEF04F000EFBC
:1008600000F0016E01C0AFFFB896AC94AC98AB8EAF
:10087000AC8AAC9CAB88AB9C1200016EACA243EF7F
:1008800004F045EF04F03EEF04F001C0ADFF1200AC
:10089000046A000EF86E080EF76E000121EF04F0F6
:020000040020DA
:08000000FFFFFFFFFFFFFFFF00
:020000040030CA
:0E000000008C181EFF8180FF0FC00FE00F4024
:00000001FF
