:020000040000FA
:04000000BEEF3FF020
:107F7C000001C1EF3FF09380938295909592959478
:107F8C0081A0CBEF3FF0CDEF3FF0D7EF3FF081A2D8
:107F9C00D2EF3FF0D4EF3FF0D7EF3FF08C80C6EF3D
:107FAC003FF081B0DCEF3FF0DEEF3FF0E8EF3FF069
:107FBC0081A2E3EF3FF0E5EF3FF0E8EF3FF08C827A
:107FCC00C6EF3FF081A0EDEF3FF0EFEF3FF0F9EFA0
:107FDC003FF081B2F4EF3FF0F6EF3FF0F9EF3FF0F6
:107FEC008C84C6EF3FF08C908C928C94C6EF3FF053
:047FFC0000EF00F0A2
:020000040020DA
:08000000FFFFFFFFFFFFFFFF00
:020000040030CA
:0E000000008C181EFF8180FF0FC00FE00F4024
:00000001FF
