:020000040000FA
:04000000CBEF3FF013
:107F96000001CEEF3FF09590959295948C848C805D
:107FA6008C920D0E026EAF0E016EB60EE82EFED747
:107FB600012EFCD7022EFAD700D08C908C820D0EA3
:107FC600026EAF0E016EB60EE82EFED7012EFCD75E
:107FD600022EFAD700D08C808C820D0E026EAF0E68
:107FE600016EB60EE82EFED7012EFCD7022EFAD76A
:0A7FF60000D0D2EF3FF000EF00F0E2
:020000040020DA
:08000000FFFFFFFFFFFFFFFF00
:020000040030CA
:0E000000008C181EFF8180FF0FC00FE00F4024
:00000001FF
