:020000040000FA
:04000000D5EF04F044
:0D08000000486F6C61206D756E646F000024
:10080E00000E956E820E056EDE0EE82EFED7052EBC
:10081E00FCD7300E8FEC04F0210E056E760EE82E0E
:10082E00FED7052EFCD700D0300E8FEC04F0A60EAE
:10083E00E82EFED700D0320E8FEC04F0280E8FEC8F
:10084E0004F00C0E8FEC04F0010E8FEC04F0060E8B
:10085E008FEC04F01200959007EC04F0080E056E74
:10086E00010EC1EC04F0570EA8EC04F0000E056E5C
:10087E00010EC1EC04F0650EA8EC04F0000E056E3E
:10088E00000EC1EC04F0010E056E080E066E74EC3F
:10089E0004F050EF04F000EF00F001040210D8A4B1
:1008AE005BEF04F05DEF04F060EF04F08C8461EF19
:1008BE0004F08C94070E036E7D0EE82EFED7032EE9
:1008CE00FCD700F08C86070E036E7D0EE82EFED749
:1008DE00032EFCD700F08C96120080EF04F005C0BA
:1008EE00F6FF06C0F7FF0800F550A8EC04F0054A25
:1008FE00062A05C0F6FF06C0F7FF0800F5500009EE
:10090E00D8A48CEF04F08EEF04F076EF04F0120012
:10091E00046E030E8C160450F00B8C12000E026E39
:10092E00000E016E54EC04F0030E8C160438F00B1E
:10093E00F00B8C12000E026E000E016E54EC04F0E1
:10094E001200046E030E8C160450F00B8C12000E67
:10095E00026E010E016E54EC04F0030E8C16043878
:10096E00F00BF00B8C12000E026E010E016E54ECA9
:10097E0004F01200066E0650D8B4C8EF04F0CAEFA9
:10098E0004F0D0EF04F00550C00F8FEC04F0D4EF5C
:10099E0004F00550800F8FEC04F01200000EF86E7C
:0A09AE00080EF76E000132EF04F0AE
:020000040020DA
:08000000FFFFFFFFFFFFFFFF00
:020000040030CA
:0E000000008C181EFF8180FF0FC00FE00F4024
:00000001FF
