:020000040000FA
:0400000013EF00F00A
:06000800058215ED00F079
:100018000580E0CF04F004C0E0FF0590100045EF34
:1000280000F00600B30ED66EB30ED76E8CB01FEF7D
:1000380000F022EF00F0010E23EF00F0000EFF0A9F
:10004800036E8C500318FE0B03188C6EF294059205
:100058001100D58ED59AD59CD596D584D582D580D4
:10006800B30ED66EB30ED76EF28AF294F1841200F4
:1000780095902DEC00F04CEC00F041EF00F013EF00
:1000880000F0026A016A0590059200013CEF00F059
:08009800D08EF28EF28C1200F2
:020000040020DA
:08000000FFFFFFFFFFFFFFFF00
:020000040030CA
:0E000000008C181EFF8180FF0FC00FE00F4024
:00000001FF
