:020000040000FA
:0400000013EF00F00A
:060008001C82C3ED00F0B4
:100018001C80E0CF16F016C0E0FF1C901000B8EF6F
:1000280000F0000E956E820E1B6EDE0EE82EFED7D7
:100038001B2EFCD7300E60EC00F0210E1B6E760EE6
:10004800E82EFED71B2EFCD700D0300E60EC00F057
:10005800A60EE82EFED700D0320E60EC00F0280E77
:1000680060EC00F00C0E60EC00F0010E60EC00F0AB
:10007800060E60EC00F0120017041810D8A447EF21
:1000880000F049EF00F04CEF00F08C844DEF00F0E9
:100098008C94070E196E7D0EE82EFED7192EFCD70C
:1000A80000F08C86070E196E7D0EE82EFED7192EED
:1000B800FCD700F08C9612001A6E030E8C161A509C
:1000C800F00B8C12000E186E000E176E40EC00F04C
:1000D800030E8C161A38F00BF00B8C12000E186EEB
:1000E800000E176E40EC00F0120092809282C15010
:1000F800F00B0D09C16EC19AC198C30EC216C0504B
:10010800F80B0509C06E9E9C9D8C9F8CC050C70B38
:100118001009C06EC09EC2801200186E0C0E1864C2
:1001280098EF00F09AEF00F09CEF00F0000E186EC8
:1001380018C017F017461746C2501718C30B1718E0
:10014800C26EC2821200000E956E000E946E79EC9B
:1001580000F015EC00F0CCEC00F0000E91EC00F093
:10016800B4EF00F013EF00F000EE01F0150EEE6AA8
:10017800E806FDE11C901C920001A7EF00F00600C4
:10018800C4CF8CFFC3CF8BFFC2829E9C1C921100F0
:08019800D08EF28EF28C1200F1
:020000040020DA
:08000000FFFFFFFFFFFFFFFF00
:020000040030CA
:0E000000008C181EFF8180FF0FC00FE00F4024
:00000001FF
