:020000040000FA
:0400000099EF3FF045
:107F320000019CEF3FF092909390949095909690D0
:107F420089B0A6EF3FF0A9EF3FF0010EAAEF3FF094
:107F5200000EFF0A016E89500118FE0B0118896E8E
:107F62008AB0B6EF3FF0B9EF3FF0010EBAEF3FF043
:107F7200000EFF0A016E8A500118FE0B01188A6E6C
:107F82008BB0C6EF3FF0C9EF3FF0010ECAEF3FF0F2
:107F9200000EFF0A016E8B500118FE0B01188B6E4A
:107FA2008CB0D6EF3FF0D9EF3FF0010EDAEF3FF0A1
:107FB200000EFF0A016E8C500118FE0B01188C6E28
:107FC2008DB0E6EF3FF0E9EF3FF0010EEAEF3FF050
:107FD200000EFF0A016E8D500118FE0B01188D6E06
:107FE200030E026E8A0E016E560EE82EFED7012E89
:0E7FF200FCD7022EFAD7A1EF3FF000EF00F00F
:020000040020DA
:08000000FFFFFFFFFFFFFFFF00
:020000040030CA
:0E000000008C181EFF8180FF0FC00FE00F4024
:00000001FF
