:020000040000FA
:0400000013EF00F00A
:06000800058215ED00F079
:100018000580E0CF04F004C0E0FF0590100041EF38
:1000280000F006003B0ED66E8CB01DEF00F020EFFE
:1000380000F0010E21EF00F0000EFF0A036E8C5055
:100048000318FE0B03188C6EF29405921100D58EDE
:10005800D59AD58CD596D584D582D5803B0ED66ECB
:10006800F28AF294F184120095902BEC00F048EC9F
:1000780000F03DEF00F013EF00F0026A016A05900E
:100088000592000138EF00F0D08EF28EF28C12004B
:020000040020DA
:08000000FFFFFFFFFFFFFFFF00
:020000040030CA
:0E000000008C181EFF8180FF0FC00FE00F4024
:00000001FF
