:020000040000FA
:04000000AAEF3FF034
:107F5000AE501200000EF86E0001C6EF3FF0016E49
:107F6000ACA2B5EF3FF0B7EF3FF0B0EF3FF001C08C
:107F7000ADFF1200016E01C0AFFFB896AC94AC9893
:107F8000AB8EAC8AAC9CAB88AB9C12001F0EBAECDB
:107F90003FF095909592A8EC3FF0046ED9EF3FF03A
:107FA0008C80EEEF3FF08C90EEEF3FF08C82EEEFA6
:107FB0003FF00450026E036A0350000AD8B4E3EFA6
:107FC0003FF0D6EF3FF00250310AD8B4D0EF3FF087
:107FD000030AD8B4D3EF3FF0D6EF3FF00450AFEC34
:107FE0003FF0030E036E8A0E026E560EE82EFED789
:107FF000022EFCD7032EFAD7CBEF3FF000EF00F0B4
:020000040020DA
:08000000FFFFFFFFFFFFFFFF00
:020000040030CA
:0E000000008C181EFF8180FF0FC00FE00F4024
:00000001FF
