:020000040000FA
:0400000007EF00F016
:0A000800098205ED05F0D4EF04F0C5
:1008000000517565206275656E20637572736F2087
:1008100057656C732C204164696F73004372697370
:07082000746F62616C0000BF
:1008280093829384FFEC04F07FEF04F096EC04F0DD
:1008380081B221EF04F023EF04F025EF04F0064A1B
:10084800072A81B42AEF04F02CEF04F02FEF04F00C
:100858000606D8A00706075009E1330E065CD8A0A3
:1008680038EF04F03AEF04F03EEF04F0000E076EA4
:10087800310E066E06500710D8A445EF04F047EF76
:1008880004F04BEF04F0000E076E010E066E06C072
:1008980004F007C005F0D89005320432D89005322C
:1008A80004320450BE6E06C004F0030E0416043A67
:1008B800BD500418CF0B0418BD6E820E046EDE0EF8
:1008C800E82EFED7042EFCD71F0EE8EC04F01C0E11
:1008D800026E080E036EB9EC04F07FEF04F0F00E20
:1008E800BD16010E026E080E036EB9EC04F0000E80
:1008F800086E7FEF04F00850046E056A0550000A80
:10090800D8B489EF04F07FEF04F00450010AD8B49A
:100918001AEF04F0030AD8B473EF04F07FEF04F081
:1009280007EF00F00C0ECB6E06C001F007C002F016
:10093800D89002320132D890023201320150BE6E94
:1009480006C001F0030E0116013ABD500118CF0B85
:100958000118BD6E9494CA50FC0B0209CA6ECA8471
:10096800BD50F00B0C09BD6E1200C5EF04F002C0BB
:10097800F6FF03C0F7FF0800F550F4EC04F0024A54
:10098800032A02C0F6FF03C0F7FF0800F55000096C
:10099800D8A4D1EF04F0D3EF04F0BBEF04F01200B9
:1009A800140EF66E0A0EF76E000EF86E0900F5CFFB
:1009B80006F00900F5CF07F0086A09900992000EC1
:1009C800F86E000114EF04F0016E01C0AFFFB89695
:1009D800AC94AC98AB8EAC8AAC9CAB88AB9C120048
:1009E800016EACA2FAEF04F0FCEF04F0F5EF04F0AE
:1009F80001C0ADFF12009380F288F292F19CF28E52
:0E0A080012000600082AF29209921100010065
:020000040020DA
:08000000FFFFFFFFFFFFFFFF00
:020000040030CA
:0E000000008C181EFF8180FF0FC00FE00F4024
:00000001FF
