:020000040000FA
:0400000034EF00F0E9
:06000800068236ED00F057
:100018000680D8CF03F0E8CF04F0E0CF05F0F0A0D9
:1000280018EF00F01AEF00F02CEF00F08CB21FEF81
:1000380000F022EF00F0010E23EF00F0000EFF0A9F
:10004800026E02468C500218FD0B02188C6EF0905E
:1000580005C0E0FF04C0E8FF03C0D8FF0690100009
:1000680068EF00F00600F2A23CEF00F03EEF00F06F
:100078004FEF00F08CB043EF00F046EF00F0010EB8
:1000880047EF00F0000EFF0A016E8C500118FE0BBE
:1000980001188C6EF2920692110093809382F28876
:1000A800F086F292F090F09CF19CF19AD08EF28E4C
:1000B800F28C120051EC00F09590959295949598D9
:1000C80064EF00F034EF00F00690069200015EEF56
:0200D80000F036
:020000040020DA
:08000000FFFFFFFFFFFFFFFF00
:020000040030CA
:0E000000008C181EFF8180FF0FC00FE00F4024
:00000001FF
