:020000040000FA
:0400000087EF3FF057
:107F04003F065B4F666D7D077F67040EF66E7F0E3E
:107F1400F76E000EF86E00EE01F010EE0AF00900A4
:107F2400F5CFEEFFE550E150FAE10E6A0D6A00016B
:107F34009CEF3FF0000E956E92909292000E0C6EA4
:107F4400000E0B6E0A0E0B180C10D8A4ACEF3FF009
:107F5400AEEF3FF0B4EF3FF00D4A0E2A000E0C6E68
:107F6400000E0B6E0A0E0D180E10D8A4BCEF3FF0D5
:107F7400BEEF3FF0C2EF3FF0000E0E6E000E0D6E2E
:107F84008980010E0B24D96E000E0C20DA6EDF50AE
:107F94008C6E020E106E450E0F6EAA0EE82EFED7E2
:107FA4000F2EFCD7102EFAD789908982010E0D244A
:107FB400D96E000E0E20DA6EDF508C6E020E106E3B
:107FC400450E0F6EAA0EE82EFED70F2EFCD7102EEC
:107FD400FAD789920B4A0C2A0CBEFAEF3FF00C50E8
:107FE40009E10B0E0B5CD8A0FAEF3FF0FCEF3FF079
:0C7FF400A4EF3FF0A0EF3FF000EF00F022
:020000040020DA
:08000000FFFFFFFFFFFFFFFF00
:020000040030CA
:0E000000008C181EFF8180FF0FC00FE00F4024
:00000001FF
