:020000040000FA
:0400000087EF3FF057
:107F0E00000EF86E00018CEF3FF0939093929394D5
:107F1E00939693989586010E046E000E036EE5EF10
:107F2E003FF08A908A928A948A968A8883A6A2EFD4
:107F3E003FF0A4EF3FF0B0EF3FF00350D8A4AAEF0C
:107F4E003FF0ACEF3FF0B0EF3FF0000E046EE5EF08
:107F5E003FF083A6B5EF3FF0B7EF3FF0E5EF3FF010
:107F6E000304D8A4BDEF3FF0BFEF3FF0E5EF3FF0C5
:107F7E00020E046EE5EF3FF08A808A928A848A9818
:107F8E0083B6CCEF3FF0CEEF3FF0E5EF3FF0010EC2
:107F9E00046E010E036EE5EF3FF08A908A828A86A8
:107FAE008A9883B6DDEF3FF0DFEF3FF0E5EF3FF06D
:107FBE0092EF3FF0010E046EE5EF3FF00450016EBC
:107FCE00026A0250000AD8B4EFEF3FF0E1EF3FF043
:107FDE000150000AD8B4C3EF3FF0010AD8B498EFAD
:107FEE003FF0030AD8B4D4EF3FF0E1EF3FF000EFDB
:027FFE0000F091
:020000040020DA
:08000000FFFFFFFFFFFFFFFF00
:020000040030CA
:0E000000008C181EFF8180FF0FC00FE00F4024
:00000001FF
