:020000040000FA
:0400000013EF00F00A
:06000800168204ED04F075
:100018001680E0CF0DF00DC0E0FF1690100051EFF4
:0200280005F0E1
:1008000000486F72613A00000600800ECF6E000E45
:10081000CE6E0B4A0C2A0A0E0B180C10D8A413EF3C
:1008200004F015EF04F01BEF04F0094A0A2A000E49
:100830000C6E000E0B6E060E09180A10D8A423EFDA
:1008400004F025EF04F02BEF04F0074A082A000E0D
:100850000A6E000E096E0A0E07180810D8A433EFAE
:1008600004F035EF04F03BEF04F0054A062A000ED1
:10087000086E000E076E060E05180610D8A443EF8A
:1008800004F045EF04F04BEF04F0034A042A000E95
:10089000066E000E056E0A0E03180410D8A453EF5E
:1008A00004F055EF04F05BEF04F0014A022A000E59
:1008B000046E000E036E9E90169211009590A1ECAE
:1008C00004F060EC05F06AEC05F0000E136E000E0B
:1008D000126E000E156E000E146E39EC05F0010E4E
:1008E000126E080E136EECEC04F0000E136E010E87
:1008F000126E000E156E000E146E39EC05F00150EC
:10090000300F20EC05F00350300F20EC05F03A0ECC
:1009100020EC05F00550300F20EC05F00750300FAB
:1009200020EC05F03A0E20EC05F00950300F20ECD9
:1009300005F00B50300F20EC05F075EF04F013EFCD
:1009400000F0000E956E820E126EDE0EE82EFED7BF
:10095000122EFCD7300E07EC05F0210E126E760E2B
:10096000E82EFED7122EFCD700D0300E07EC05F093
:10097000A60EE82EFED700D0320E07EC05F0280EAA
:1009800007EC05F00C0E07EC05F0010E07EC05F086
:10099000060E07EC05F012000E040F10D8A4D3EFDA
:1009A00004F0D5EF04F0D8EF04F08C84D9EF04F014
:1009B0008C94070E106E7D0EE82EFED7102EFCD7FD
:1009C00000F08C86070E106E7D0EE82EFED7102EDE
:1009D000FCD700F08C961200F8EF04F012C0F6FF7E
:1009E00013C0F7FF0800F55020EC05F0124A132A57
:1009F00012C0F6FF13C0F7FF0800F5500009D8A495
:100A000004EF05F006EF05F0EEEF04F01200116EB2
:100A1000030E8C161150F00B8C12000E0F6E000E90
:100A20000E6ECCEC04F0030E8C161138F00BF00BAC
:100A30008C12000E0F6E000E0E6ECCEC04F0120045
:100A4000116E030E8C161150F00B8C12000E0F6EEF
:100A5000010E0E6ECCEC04F0030E8C161138F00B68
:100A6000F00B8C12000E0F6E010E0E6ECCEC04F02B
:100A7000120013BE44EF05F0135008E11204D8A091
:100A800044EF05F046EF05F04CEF05F01450C00FB1
:100A900007EC05F050EF05F01450800F07EC05F05F
:100AA000120000EE01F00C0EEE6AE806FDE1169071
:100AB0001692000EF86E080EF76E00015EEF04F05D
:100AC000800ECF6E000ECE6E0F0ECD6E9D809E906E
:0C0AD0009F801200D08EF28EF28C12007B
:020000040020DA
:08000000FFFFFFFFFFFFFFFF00
:020000040030CA
:0E000000008C181EFF8180FF0FC00FE00F4024
:00000001FF
