:020000040000FA
:040000007AEF3FF064
:107EF2000100F20EF66E7E0EF76E000EF86E0900AD
:107F0200F5CF05F00900F5CF06F00001ACEF3FF028
:107F12000C0ECB6E05C001F006C002F0D890023202
:107F22000132D890023201320150BE6E05C001F01A
:107F3200030E0116013ABD500118CF0B0118BD6E98
:107F42009494CA50FC0B0209CA6ECA84BD50F00B4D
:107F52000C09BD6E12009380938289EC3FF081B0D0
:107F6200B5EF3FF0B7EF3FF0B9EF3FF0054A062A11
:107F720081B2BEEF3FF0C0EF3FF0C3EF3FF0050626
:107F8200D8A00606065009E1330E055CD8A0CCEF56
:107F92003FF0CEEF3FF0D2EF3FF0000E066E310E13
:107FA200056E05500610D8A4D9EF3FF0DBEF3FF085
:107FB200DFEF3FF0000E066E010E056E05C003F006
:107FC20006C004F0D89004320332D890043203324F
:107FD2000350BE6E05C003F0030E0316033ABD50F4
:107FE2000318CF0B0318BD6E820E036EDE0EE82E51
:0E7FF200FED7032EFCD7B0EF3FF000EF00F0FB
:020000040020DA
:08000000FFFFFFFFFFFFFFFF00
:020000040030CA
:0E000000008C181EFF8180FF0FC00FE00F4024
:00000001FF
