:020000040000FA
:0400000071EF1CF090
:100800000056303A20252E32660056313A20252EE9
:10081000326600494E46004E414E00696E66006EDB
:07082000616E006C66000030
:10082800000E00017B6F000E7A6F36C08CF037C067
:100838008DF038C08EF039C08FF08FBF28EF04F0EC
:1008480026EF04F03EEF04F0000E7B6F010E7A6F86
:100858008CC001F08DC002F08EC003F08FC004F090
:1008680094EC1BF001C08CF002C08DF003C08EF038
:1008780004C08FF0000E0001936F000E926FBAC093
:100888007EF0BBC07FF07A517B11D8A44EEF04F004
:1008980050EF04F057EF04F0BEA555EF04F057EF02
:1008A80004F071EF04F07A517B11D8A45EEF04F0E4
:1008B80060EF04F066EF04F0000E616F2B0E606FBE
:1008C8006AEF04F0000E616F2D0E606F60C000F1DA
:1008D800924B932B7E07D8A07F078CC001F08DC068
:1008E80002F08EC003F08FC004F025EC17F001046D
:1008F8000210D8A482EF04F084EF04F0DBEF04F0D8
:10090800BF0E3B6EFF0E3C6E3A503D6E3E6A3B504A
:100918003D263C503E223E500AE11A0E3D5CD8A0CE
:1009280098EF04F09BEF04F0010E9CEF04F0000E2A
:100938000001626F636B62516311D8B4A6EF04F0D3
:10094800A8EF04F0B6EF04F0000E9225016E010E38
:100958009321026E130E036E080E046E47EC1AF014
:10096800C2EF04F0000E9225016E010E9321026E73
:100978001B0E036E080E046E47EC1AF00001FD0E04
:100988007E27FF0E7F2334C011F035C012F0000E11
:10099800136E010E146E7EC015F07FC016F074EC55
:1009A80018F011C034F012C035F03FEF0AF08CC0D7
:1009B80001F08DC002F08EC003F08FC004F025EC6A
:1009C80017F001500210D8A4ECEF04F0EEEF04F099
:1009D8002EEF05F0BF0E3B6EFF0E3C6E3A503D6E9B
:1009E8003E6A3B503D263C503E223E500AE11A0EDC
:1009F8003D5CD8A002EF05F005EF05F0010E06EF0B
:100A080005F0000E0001646F656B64516511D8B480
:100A180010EF05F012EF05F020EF05F0000E92251B
:100A2800016E010E9321026E170E036E080E046EFE
:100A380047EC1AF0C2EF04F0000E9225016E010E89
:100A48009321026E1F0E036E080E046E47EC1AF017
:100A5800C2EF04F0000E0001946F000E956F800E37
:100A6800966F3F0E976F000E916F000E906F8CC0BF
:100A780001F08DC002F08EC003F08FC004F0000EAC
:100A8800056E000E066E000E076E000E086E91ECE5
:100A980019F0D8B052EF05F054EF05F0D7EF05F094
:100AA80073EF05F094C00FF095C010F096C011F0E8
:100AB80097C012F0000E136E000E146E200E156E05
:100AC800410E166ED0EC0EF00FC094F010C095F0E9
:100AD80011C096F012C097F00001904B912B8CC07A
:100AE80028F08DC029F08EC02AF08FC02BF0000EA0
:100AF800136E000E146E200E156E410E166E94C005
:100B08000FF095C010F096C011F097C012F0D0EC1D
:100B18000EF00FC02CF010C02DF011C02EF012C036
:100B28002FF0A3EC16F0D8B09CEF05F09EEF05F07F
:100B380056EF05F0BEEF05F094C001F095C002F045
:100B480096C003F097C004F0000E056E000E066E06
:100B5800200E076E410E086EE5EC10F001C094F00F
:100B680002C095F003C096F004C097F0000190070A
:100B7800D8A091078CC028F08DC029F08EC02AF02B
:100B88008FC02BF094C02CF095C02DF096C02EF09D
:100B980097C02FF0A3EC16F0D8A0D5EF05F0D7EF4B
:100BA80005F0A0EF05F03AC007F0086A17EC1AF054
:100BB80007500001816F81C080F0670E8119D8A4A9
:100BC800E8EF05F0EAEF05F010EF06F0BC51BD11B3
:100BD800D8A4F1EF05F0F3EF05F0F7EF05F0000EFC
:100BE800BD6F010EBC6FBDBF04EF06F0BD5106E13D
:100BF800BC05D8B002EF06F004EF06F00AEF06F0E5
:100C0800000E7D6F060E7C6F19EF06F0BCC07CF0FD
:100C1800BDC07DF019EF06F0BDBF15EF06F017EF68
:100C280006F004EF06F00AEF06F0670E8119D8A463
:100C380020EF06F022EF06F051EF06F091AF30EF0B
:100C480006F0FC0E905DFF0E9159D8A02EEF06F02D
:100C580030EF06F04FEF06F0FF0E3B6EFF0E3C6ED6
:100C68007CC03DF07DC03EF03B503D263C503E22CE
:100C780090513D5C3E50800A3F6E9151800A3F582A
:100C8800D8A049EF06F04BEF06F04FEF06F0660EDE
:100C9800806F51EF06F0650E806F7CC072F07DC0EA
:100CA80073F0670E8119D8A45CEF06F05EEF06F0CA
:100CB8006EEF06F0660E8019D8A465EF06F067EFB0
:100CC80006F070EF06F091BF6EEF06F06CEF06F0DD
:100CD80070EF06F0724B732B660E8019D8A477EF6D
:100CE80006F079EF06F099EF06F091BF80EF06F075
:100CF8007EEF06F08CEF06F0000E946F000E956FF5
:100D0800800E966F3F0E976F000E916F000E906FDA
:100D1800670E8119D8B493EF06F095EF06F099EFB6
:100D280006F09051722791517323000E8B6F000EBD
:100D38008A6F8CC082F08DC083F08EC084F08FC023
:100D480085F094C074F095C075F096C076F097C0A1
:100D580077F02AEF07F082C001F083C002F084C068
:100D680003F085C004F094C005F095C006F096C065
:100D780007F097C008F0E5EC10F001C01AF002C0C7
:100D88001BF003C01CF004C01DF0B2EC12F01AC036
:100D980086F01BC087F01CC088F01DC089F086C093
:100DA80001F087C002F088C003F089C004F020EC8D
:100DB80016F001C078F002C079F082C028F083C034
:100DC80029F084C02AF085C02BF094C013F095C098
:100DD80014F096C015F097C016F086C00FF087C0C3
:100DE80010F088C011F089C012F0D0EC0EF00FC0DE
:100DF8002CF010C02DF011C02EF012C02FF0F2EC24
:100E08001AF028C082F029C083F02AC084F02BC0D1
:100E180085F094C001F095C002F096C003F097C029
:100E280004F0000E056E000E066E200E076E410ED1
:100E3800086EE5EC10F001C094F002C095F003C014
:100E480096F004C097F000018A4B8B2B72518A5D93
:100E58008B51800A3B6E7351800A3B58D8A037EFFC
:100E680007F039EF07F0AFEF06F094C00FF095C028
:100E780010F096C011F097C012F0000E136E000E1D
:100E8800146EA00E156E400E166ED0EC0EF00FC04C
:100E980086F010C087F011C088F012C089F082C0B7
:100EA80028F083C029F084C02AF085C02BF086C0C2
:100EB8002CF087C02DF088C02EF089C02FF0A3EC4D
:100EC80016F0D8B06AEF07F06CEF07F077EF07F08D
:100ED800000E0001866F000E876F000E886F000EEF
:100EE800896FA0EF07F082C001F083C002F084C0D0
:100EF80003F085C004F086C005F087C006F088C0FE
:100F080007F089C008F091EC19F0D8A08EEF07F02F
:100F180090EF07F0A0EF07F0000178B196EF07F027
:100F280098EF07F0A0EF07F0000E866F000E876FAE
:100F3800000E886F000E896F8CC001F08DC002F022
:100F48008EC003F08FC004F086C005F087C006F09D
:100F580088C007F089C008F040EC0AF001C082F0B0
:100F680002C083F003C084F004C085F082C028F07A
:100F780083C029F084C02AF085C02BF0000E136EC0
:100F8800000E146E200E156E410E166E74C00FF012
:100F980075C010F076C011F077C012F0D0EC0EF0EA
:100FA8000FC02CF010C02DF011C02EF012C02FF081
:100FB800A3EC16F0D8A0E3EF07F0E5EF07F00EEF8B
:100FC80008F00001904B912B74C00FF075C010F021
:100FD80076C011F077C012F0000E136E000E146E7A
:100FE800200E156E410E166ED0EC0EF00FC074F088
:100FF80010C075F011C076F012C077F0660E0001CF
:101008008019D8A40AEF08F00CEF08F00EEF08F0EA
:10101800724B732B74C094F075C095F076C096F03F
:1010280077C097F0650E00018019D8B41EEF08F05C
:1010380020EF08F026EF08F090C070F091C071F032
:101048002AEF08F0000E716F000E706F000E6F6FC0
:10105800000E6E6F000E6D6F000E6C6F000E8B6FC2
:10106800000E8A6F25EF09F082C001F083C002F0FC
:1010780084C003F085C004F094C005F095C006F064
:1010880096C007F097C008F0E5EC10F001C01AF020
:1010980002C01BF003C01CF004C01DF0B2EC12F03B
:1010A8001AC086F01BC087F01CC088F01DC089F0EC
:1010B80086C001F087C002F088C003F089C004F040
:1010C80020EC16F001C078F002C079F00001BEB93A
:1010D80070EF08F072EF08F08FEF08F0785179118F
:1010E800D8A479EF08F07BEF08F08FEF08F0670ECF
:1010F8008119D8A482EF08F084EF08F08FEF08F088
:1011080071BF8BEF08F089EF08F08FEF08F06C4B98
:101118006D2BD9EF08F06E516F11D8A496EF08F037
:1011280098EF08F0C2EF08F071BF9FEF08F09DEF4D
:1011380008F0C2EF08F0000E9225D96E010E932137
:10114800DA6E2E0EDF6E924B932B7E07D8A07F07A8
:10115800000E6F6F010E6E6FC2EF08F0000E922541
:10116800D96E010E9321DA6E300EDF6E924B932BFF
:101178007E07D8A07F076C07D8A06D076C516D114A
:10118800D8A4C9EF08F0CBEF08F0B2EF08F0000ED2
:101198009225D96E010E9321DA6E7851300FDF6EE9
:1011A800924B932B7E07D8A07F0782C028F083C07C
:1011B80029F084C02AF085C02BF094C013F095C0A4
:1011C80014F096C015F097C016F086C00FF087C0CF
:1011D80010F088C011F089C012F0D0EC0EF00FC0EA
:1011E8002CF010C02DF011C02EF012C02FF0F2EC30
:1011F8001AF028C082F029C083F02AC084F02BC0DE
:1012080085F094C001F095C002F096C003F097C035
:1012180004F0000E056E000E066E200E076E410EDD
:10122800086EE5EC10F001C094F002C095F003C020
:1012380096F004C097F000017007D8A071078A4B98
:101248008B2B72518A5D8B51800A3B6E7351800AD9
:101258003B58D8B032EF09F034EF09F042EF09F00B
:1012680093BF40EF09F0935109E14B0E925DD8A06E
:1012780040EF09F042EF09F038EF08F06E516F11B6
:10128800D8A449EF09F04BEF09F05CEF09F0BEA9CB
:1012980050EF09F052EF09F05CEF09F0000E9225CB
:1012A800D96E010E9321DA6E2E0EDF6E924B932BC0
:1012B800000E9225D96E010E9321DA6E000EDF6EB4
:1012C800650E8019D8A46BEF09F06DEF09F0C7EF30
:1012D80004F0000E8B6F4F0E8A6F000E8A25D96EB0
:1012E800010E8B21DA6E000EDF6E000E7B6F000E92
:1012F8007A6F91BF84EF09F082EF09F08CEF09F063
:10130800000E7B6F010E7A6F906D911FD8B0912BF4
:10131800000E7D6F020E7C6FBDEF09F08A07D8A022
:101328008B07000E8A25D96E010E8B21DA6E90C0CC
:1013380001F091C002F0000E046E0A0E036E39EC43
:1013480019F00150300FDF6E90C001F091C002F02B
:10135800000E046E0A0E036ED7EC18F001C090F070
:1013680002C091F000017C07D8A07D077E07D8A0B5
:101378007F0790519111D8A4C4EF09F0C6EF09F086
:1013880092EF09F07DBFD3EF09F07D5106E17C05AE
:10139800D8B0D1EF09F0D3EF09F092EF09F08A073E
:1013A800D8A08B077A517B11D8A4DDEF09F0DFEFC5
:1013B80009F0E5EF09F0000E676F2B0E666FE9EF95
:1013C80009F0000E676F2D0E666F000E8A25D96E24
:1013D800010E8B21DA6E66C0DFFF7E07D8A07F077B
:1013E8008A07D8A08B07BF0E3B6EFF0E3C6E3A50A3
:1013F8003D6E3E6A3B503D263C503E223E500AE13F
:101408001A0E3D5CD8A00BEF0AF00EEF0AF0010EA1
:101418000FEF0AF0000E6A6F6B6B6A516B11D8A45C
:1014280018EF0AF01AEF0AF020EF0AF0000E696FC1
:10143800650E686F24EF0AF0000E696F450E686F3D
:10144800000E8A25D96E010E8B21DA6E68C0DFFF87
:101458007E07D8A07F07000E9225016E010E93210A
:10146800026E000E8A25036E010E8B21046E47EC76
:101478001AF0C7EF04F012000450800B0D6E0450F0
:1014880004240F6E03AE4BEF0AF04DEF0AF04EEF57
:101498000AF00F800F50D8B454EF0AF056EF0AF054
:1014A8006BEF0AF00F28D8A45CEF0AF05EEF0AF0A1
:1014B80066EF0AF0000E016E000E026E000E036E5B
:1014C800000E046E038E000E046E73EF0AF0000E19
:1014D800016E000E026E000E036E000E046E0850C0
:1014E800800B0E6E0D500E18D8B47DEF0AF07FEF0A
:1014F8000AF080EF0AF00D8C085008240E6E07AE33
:1015080088EF0AF08AEF0AF08BEF0AF00E800E508F
:10151800D8B491EF0AF093EF0AF0A8EF0AF00E287A
:10152800D8A499EF0AF09BEF0AF0A3EF0AF0000E97
:10153800056E000E066E000E076E000E086E078E12
:10154800000E086EB0EF0AF0000E056E000E066E73
:10155800000E076E000E086E0F500E5CD8B0B7EF85
:101568000AF0B9EF0AF0E0EF0AF00DACBEEF0AF0AE
:10157800C0EF0AF0C2EF0AF0800E0D1A0FC010F08B
:101588000EC00FF010C00EF001C010F005C001F041
:1015980010C005F002C010F006C002F010C006F03E
:1015A80003C010F007C003F010C007F004C010F02B
:1015B80008C004F010C008F0000E106E0F500EC0E6
:1015C80009F00A6A095E000E0A5A0ABEF5EF0AF027
:1015D8000A5009E11A0E095CD8A0F5EF0AF0F7EFF6
:1015E8000AF02EEF0BF00150021003100410D8A4DB
:1015F80000EF0BF003EF0BF0010E04EF0BF0000E01
:10160800106E000E016E000E026E000E036E000ECC
:10161800046E0EC00FF037EF0BF010A016EF0BF0B2
:1016280018EF0BF01EEF0BF0D89010300109106E78
:1016380020EF0BF0D890103201A025EF0BF027EF28
:101648000BF028EF0BF0108E043404320332023210
:1016580001320F2A0E500F5CD8A035EF0BF037EF90
:101668000BF011EF0BF00DBC3CEF0BF03EEF0BF065
:101678007EEF0BF00F50D8A444EF0BF046EF0BF0C1
:1016880050EF0BF0000E016E000E026E000E036E9E
:10169800000E046E9FEF0CF0055001260650022242
:1016A800075003220850042204A05DEF0BF05FEFFF
:1016B8000BF00BEF0CF010A064EF0BF066EF0BF0E3
:1016C8006CEF0BF0D89010300109106E6EEF0BF034
:1016D800D890103201A073EF0BF075EF0BF076EF96
:1016E8000BF0108E043404320332023201320F2A16
:1016F8000BEF0CF00550015C0650025807500358D8
:101708000450800A096E0850800A0958D8B08FEF33
:101718000BF091EF0BF0BCEF0BF00150055C096E7C
:10172800025006580A6E035007580B6E04500858AA
:101738000C6EFF0E0924016EFF0E0A20026EFF0ECA
:101748000B20036EFF0E0C20046E800E0D1A106C19
:101758001050D8A4B2EF0BF0B4EF0BF0C4EF0BF0BD
:10176800010E0126000E022203220422C4EF0BF010
:101778000550015E0650025A0750035A0850045A91
:101788000150021003100410D8A4CDEF0BF0CFEFD6
:101798000BF004EF0CF01050D8A4D5EF0BF0D7EFF6
:1017A8000BF004EF0CF0000E016E000E026E000E3E
:1017B800036E000E046E9FEF0CF0D89001360236CF
:1017C8000336043610AEEBEF0BF0EDEF0BF0EEEF57
:1017D8000BF0018010A0F3EF0BF0F5EF0BF0F9EF31
:1017E8000BF0D8801036FBEF0BF0D89010360F5066
:1017F800D8B401EF0CF003EF0CF004EF0CF00F0677
:1018080003AE09EF0CF00BEF0CF0E1EF0BF0000E5C
:101818000E6E10AE12EF0CF014EF0CF02CEF0CF073
:1018280010C009F07F0E0916D8B41DEF0CF01FEF99
:101838000CF023EF0CF0010E0E6E2CEF0CF001A053
:1018480028EF0CF02AEF0CF02CEF0CF01FEF0CF047
:101858000E50D8B432EF0CF034EF0CF05FEF0CF010
:10186800010E0126000E02220322042204A03FEFEB
:101878000CF041EF0CF05FEF0CF001C009F002C072
:101888000AF003C00BF004C00CF00C340C320B321D
:101898000A32093209C001F00AC002F00BC003F095
:1018A8000CC004F00F28D8B45CEF0CF05EEF0CF01D
:1018B8005FEF0CF00F2A0F28D8B465EF0CF067EF34
:1018C8000CF06FEF0CF00F50D8A46DEF0CF06FEF29
:1018D8000CF081EF0CF0000E016E000E026E000E8F
:1018E800036E000E046E0F50D8A47DEF0CF07FEF4E
:1018F8000CF081EF0CF0000E0D6E0FA086EF0CF0CF
:1019080088EF0CF08BEF0CF0038E8CEF0CF0039E3D
:10191800D8900F30046E0DAE94EF0CF096EF0CF0EB
:1019280097EF0CF0048E01C001F002C002F003C072
:1019380003F004C004F0120042C0D9FF43C0DAFF2C
:10194800DECFF6FFDDCFF7FF0800F550250AD8A453
:10195800B0EF0CF0B2EF0CF0B4EF0EF042C0D9FFCC
:1019680043C0DAFFDE2A000EDD22000E0001BB6F45
:10197800000EBA6FBAC0BEF0BBC0BFF0BC69BD698B
:1019880042C0D9FF43C0DAFFDECFF6FFDDCFF7FF55
:101998000800F5502E0AD8A4D4EF0CF0D6EF0CF0BE
:1019A80053EF0DF0000EBD6F000EBC6F42C0D9FFA3
:1019B80043C0DAFFDE2A000EDD2242C0D9FF43C051
:1019C800DAFFDECFF6FFDDCFF7FF0800F5502A0A71
:1019D800D8A4F1EF0CF0F3EF0CF010EF0DF042C0CB
:1019E800D9FF43C0DAFFDE2A000EDD2244C0D9FF4A
:1019F80045C0DAFFDFCF46F0020EDE26DFCF47F024
:101A0800000EDD2246C0D9FF47C0DAFFDECFBCF0AA
:101A1800DDCFBDF053EF0DF042C0D9FF43C0DAFF70
:101A2800DECF08F0DDCF09F095EC14F008C0BCF06B
:101A380009C0BDF027EF0DF042C0D9FF43C0DAFF5F
:101A4800DE2A000EDD22D00E466EFF0E476E42C023
:101A5800D9FF43C0DAFFDECFF6FFDDCFF7FF08007E
:101A6800F550486E496A4650482647504922495021
:101A78000AE10A0E485CD8A044EF0DF047EF0DF0DC
:101A8800010E48EF0DF0000E4A6E4B6A4A504B109B
:101A9800D8A451EF0DF053EF0DF020EF0DF042C038
:101AA800D9FF43C0DAFFDECFF6FFDDCFF7FF08002E
:101AB800F550076E086A17EC1AF00750526E52502C
:101AC800D8B469EF0DF06BEF0DF0A3EF0DF042C045
:101AD800D9FF43C0DAFFDECF46F0DDCF47F0010E75
:101AE8004626000E472246C0F6FF47C0F7FF08000B
:101AF800F550076E086A17EC1AF00750536E5350EA
:101B0800D8B489EF0DF08BEF0DF0A3EF0DF042C0C4
:101B1800D9FF43C0DAFFDECF46F0DDCF47F0020E33
:101B28004626000E472246C0F6FF47C0F7FF0800CA
:101B3800F550076E086A17EC1AF00750546E660ED7
:101B48005218D8A4AAEF0DF0ACEF0DF0ECEF0DF0A1
:101B580042C0D9FF43C0DAFFDECFF6FFDDCFF7FF83
:101B68000800F5CF55F042C0D9FF43C0DAFFDE2A9E
:101B7800000EDD2244C0D9FF45C0DAFFDFCF46F0B2
:101B8800040EDE26DFCF47F0000EDD2246C0D9FF67
:101B980047C0DAFFDECF4EF0DECF4FF0DECF50F099
:101BA800DECF51F040C034F041C035F04EC036F0C1
:101BB8004FC037F050C038F051C039F055C03AF036
:101BC80014EC04F034C040F035C041F0CFEF0EF013
:101BD800520E016E000E026E230E036E080E046E86
:101BE800000E066E020E056EA4EC17F001500210EE
:101BF800D8A401EF0EF003EF0EF07EEF0EF042C016
:101C0800D9FF43C0DAFFDECF46F0DDCF47F0010E43
:101C18004626000E472246C0F6FF47C0F7FF0800D9
:101C2800F5CF55F0BF0E466EFF0E476E42C0D9FF86
:101C380043C0DAFFDECFF6FFDDCFF7FF0800F5502F
:101C4800486E496A465048264750492249500AE199
:101C58001A0E485CD8A033EF0EF036EF0EF0010EE6
:101C680037EF0EF0000E4C6E4D6A4C504D10D8B444
:101C780040EF0EF042EF0EF05CEF0EF044C0D9FFDB
:101C880045C0DAFFDFCF46F0040EDE26DFCF47F08F
:101C9800000EDD2246C0D9FF47C0DAFFDECF4EF086
:101CA800DECF4FF0DECF50F0DECF51F074EF0EF004
:101CB80044C0D9FF45C0DAFFDFCF46F0040EDE2668
:101CC800DFCF47F0000EDD2246C0D9FF47C0DAFF5C
:101CD800DECF4EF0DECF4FF0DECF50F0DECF51F04A
:101CE800020E42C0D9FF43C0DAFFDE26000EDD2215
:101CF800D6EF0DF042C0D9FF43C0DAFFDECFF6FFC2
:101D0800DDCFF7FF0800F550250AD8A48EEF0EF0B6
:101D180090EF0EF0A7EF0EF042C0D9FF43C0DAFFF4
:101D2800DE2A000EDD22000E026E250E016E40C076
:101D380003F041C004F00FEC18F0000E416E010EE4
:101D4800406ECFEF0EF042C0D9FF43C0DAFFDE2A63
:101D5800000EDD22000E416E000E406ECFEF0EF039
:101D680042C0D9FF43C0DAFFDECFF6FFDDCFF7FF71
:101D78000800F550016E026A40C003F041C004F04B
:101D88000FEC18F042C0D9FF43C0DAFFDE2A000E7C
:101D9800DD22A1EF0EF012001250800B1B6E1250C4
:101DA8001224216E11AEDBEF0EF0DDEF0EF0DEEF48
:101DB8000EF021802150D8B4E4EF0EF0E6EF0EF0DB
:101DC800F9EF0EF02128D8A4ECEF0EF0EEEF0EF0AC
:101DD800F6EF0EF0000E0F6E000E106E000E116E74
:101DE800000E126E118E01EF0FF0000E0F6E000E36
:101DF800106E000E116E000E126E1650800B1B1A1C
:101E080016501624206E15AE0CEF0FF00EEF0FF0E3
:101E18000FEF0FF020802050D8B415EF0FF017EF18
:101E28000FF02AEF0FF02028D8A41DEF0FF01FEFB6
:101E38000FF027EF0FF0000E136E000E146E000E59
:101E4800156E000E166E158E32EF0FF0000E136E23
:101E5800000E146E000E156E000E166E2050D8B4CB
:101E680038EF0FF03AEF0FF042EF0FF02150D8A4FF
:101E780040EF0FF042EF0FF04CEF0FF0000E0F6E37
:101E8800000E106E000E116E000E126EE4EF10F0D0
:101E980015500F02F3CF26F0F4CF27F026501C6E12
:101EA8001D6A1E6A1F6A2750226E236A246A256AE1
:101EB80014501002F3CF26F0F4CF27F026501C263A
:101EC800000E1D221E221F2227502226000E23222A
:101ED8002422252213501102F3CF26F0F4CF27F045
:101EE80026501C26000E1D221E221F2227502226A5
:101EF800000E2322242225221EC01FF01DC01EF022
:101F08001CC01DF01C6A13501002F3CF26F0F4CF4A
:101F180027F026501C2627501D22000E1E22000ED8
:101F28001F2214500F02F3CF26F0F4CF27F02650CB
:101F38001C2627501D22000E1E22000E1F221EC026
:101F48001FF01DC01EF01CC01DF01C6A13500F02AC
:101F5800F3CF26F0F4CF27F026501C2627501D2259
:101F6800000E1E22000E1F2215501002F3CF26F07D
:101F7800F4CF27F02650222627502322000E2422B1
:101F8800000E252214501102F3CF26F0F4CF27F0CB
:101F98002650222627502322000E2422000E252216
:101FA80015501102F3CF26F0F4CF27F02650176E04
:101FB8002750186E196A1A6A19C01AF018C019F051
:101FC80017C018F0176A17502226185023221950E4
:101FD80024221A5025221CC017F01DC018F01EC05C
:101FE80019F01FC01AF0190EFFEF0FF0D8901A322F
:101FF800193218321732E82EFAEF0FF0175022264E
:1020080018502322195024221A5025221EC01FF0CE
:102018001DC01EF01CC01DF01C6A205021C017F006
:10202800186A1726000E1822820E1724266EFF0E35
:102038001820276E35EF10F0D89022362336243634
:1020480025361FAE2AEF10F02CEF10F02DEF10F010
:102058002280D8901C361D361E361F362606D8A07C
:10206800270624AE3AEF10F03CEF10F020EF10F006
:10207800000E206E1FAE43EF10F045EF10F069EF31
:1020880010F0FF0E1C14176EFF0E1D14186EFF0EB5
:102098001E14196E7F0E1F141A6E1750181019107F
:1020A8001A10D8B45AEF10F05CEF10F060EF10F08F
:1020B800010E206E69EF10F022A065EF10F067EFB7
:1020C80010F069EF10F05CEF10F02050D8B46FEF0B
:1020D80010F071EF10F095EF10F0010E2226000EAF
:1020E80023222422252225A07CEF10F07EEF10F079
:1020F80095EF10F022C017F023C018F024C019F093
:1021080025C01AF01A341A3219321832173217C089
:1021180022F018C023F019C024F01AC025F0264A6E
:10212800272A27BEA0EF10F0275008E12628D8A0BC
:10213800A0EF10F0A2EF10F0ACEF10F0000E226E3E
:10214800000E236E800E246E7F0E256EDAEF10F0DF
:1021580027BEB9EF10F0275006E12604D8B0B7EF34
:1021680010F0B9EF10F0C5EF10F0000E226E000E5F
:10217800236E000E246E000E256E000E1B6EDAEF25
:1021880010F026C021F0FF0E2216FF0E23167F0E38
:102198002416000E251621A0D4EF10F0D6EF10F06B
:1021A800D7EF10F0248ED8902130256E1B502512C1
:1021B80022C00FF023C010F024C011F025C012F087
:1021C80012000450800B116E04500424186E03AEE4
:1021D800F0EF10F0F2EF10F0F3EF10F01880185055
:1021E800D8B4F9EF10F0FBEF10F010EF11F0182849
:1021F800D8A401EF11F003EF11F00BEF11F0000E6E
:10220800016E000E026E000E036E000E046E038E49
:10221800000E046E18EF11F0000E016E000E026E33
:10222800000E036E000E046E0850800B111A085041
:102238000824196E07AE23EF11F025EF11F026EFF1
:1022480011F019801950D8B42CEF11F02EEF11F0BD
:1022580043EF11F01928D8A434EF11F036EF11F03C
:102268003EEF11F0000E056E000E066E000E076EB2
:10227800000E086E078E000E086E4BEF11F0000E70
:10228800056E000E066E000E076E000E086E0550F5
:10229800061007100810D8A454EF11F056EF11F0EB
:1022A8006EEF11F0000E016E000E026E000E036E4E
:1022B800000E046E800E03127F0E041211500412D9
:1022C80001C001F002C002F003C003F004C004F032
:1022D800B1EF12F01850D8A474EF11F076EF11F0A6
:1022E80080EF11F0000E016E000E026E000E036EFC
:1022F800000E046EB1EF12F0195018C009F00A6A06
:10230800095E000E0A5A7F0E0924126E000E0A207A
:10231800136E01C00DF002C00EF003C00FF004C030
:1023280010F0000E016E000E026E000E036E000E1D
:10233800046E000E146E000E156E000E166E000E62
:10234800176E000E196EE1EF11F01950D8B4AFEF07
:1023580011F0B1EF11F0C8EF11F0D8900D360E362C
:102368000F361036D890013602360336043617AECB
:10237800C0EF11F0C2EF11F0C3EF11F00180D89057
:10238800143615361636173605500D5C06500E589D
:1023980007500F5808501058D8A0D5EF11F0D7EFB4
:1023A80011F0E0EF11F0178C05500D5E06500E5A33
:1023B80007500F5A0850105A192A190E1964E7EFD6
:1023C80011F0E9EF11F0A9EF11F00D500E100F10F8
:1023D8001010D8B4F2EF11F0F4EF11F00CEF12F086
:1023E80014800CEF12F0D89001360236033604360A
:1023F80017AE01EF12F003EF12F004EF12F00180B4
:10240800D89014361536163617361206D8A0130685
:1024180003AE11EF12F013EF12F0F7EF11F0000E08
:10242800196E17AE1AEF12F01CEF12F040EF12F00F
:10243800FF0E1414096EFF0E15140A6EFF0E161403
:102448000B6E7F0E17140C6E09500A100B100C102F
:10245800D8B431EF12F033EF12F037EF12F0010E6B
:10246800196E40EF12F001A03CEF12F03EEF12F0AF
:1024780040EF12F033EF12F01950D8B446EF12F0D3
:1024880048EF12F06CEF12F0010E0126000E022246
:102498000322042204A053EF12F055EF12F06CEF60
:1024A80012F001C009F002C00AF003C00BF004C02A
:1024B8000CF00C340C320B320A32093209C001F02C
:1024C8000AC002F00BC003F00CC004F0124A132A31
:1024D80013BE77EF12F0135008E11228D8A077EF57
:1024E80012F079EF12F084EF12F0000E136E1268FA
:1024F800000E016E000E026E000E036E000E046EDA
:1025080013BE91EF12F0135006E11204D8B08FEF0A
:1025180012F091EF12F09FEF12F0000E136E000E02
:10252800126E000E016E000E026E000E036E000E9B
:10253800046E000E116E12C018F018A0A6EF12F06B
:10254800A8EF12F0ABEF12F0038EACEF12F0039E7F
:10255800D8901830046E62EF11F01200A8C02AF06B
:10256800A9C02BF0AAC02CF0ABC02DF01AC02AF0DD
:102578001BC02BF01CC02CF01DC02DF0810E1E6E50
:10258800FF0E1F6E2AC020F02BC021F02CC022F0B5
:102598002DC023F0180ED6EF12F0D8902332223235
:1025A80021322032E82ED1EF12F020501E24286E5E
:1025B800000E1F20296E29BEEBEF12F0295009E109
:1025C800170E285CD8A0EBEF12F0EDEF12F0F7EF42
:1025D80012F01AC01AF01BC01BF01CC01CF01DC062
:1025E8001DF0BAEF13F029BEFCEF12F0FEEF12F067
:1025F8006EEF13F028C01EF0FF0E1F6EFF0E206E48
:102608007F0E216E000E226E1E660DEF13F015EF81
:1026180013F022342232213220321F321E2E08EFCC
:1026280013F01FC024F020C025F021C026F022C0DE
:1026380027F024502A141E6E25502B141F6E265086
:102648002C14206E27502D14216E1E501F102010A0
:102658002110D8A432EF13F034EF13F036EF13F053
:10266800EDEF12F02AC01EF02BC01FF02CC020F096
:102678002DC021F0200E46EF13F0D89021322032E1
:102688001F321E32E82E41EF13F01E501F1020108B
:102698002110D8B452EF13F054EF13F05CEF13F09D
:1026A80024502A2625502B2226502C2227502D2212
:1026B800241C1E6E251C1F6E261C206E271C216ED6
:1026C8001E502A161F502B1620502C1621502D163E
:1026D800B2EF13F02AC01EF02BC01FF02CC020F060
:1026E8002DC021F0200E7EEF13F0D8902132203239
:1026F8001F321E32E82E79EF13F01E501F102010E3
:102708002110D8A48AEF13F08CEF13F096EF13F092
:10271800000E2A6E000E2B6E000E2C6E000E2D6E13
:10272800B2EF13F0D8902A341E6E2B341F6E2C345F
:10273800206E2D34216E1E501F1020102110D8B489
:10274800A8EF13F0AAEF13F0B2EF13F0000E2A6E01
:10275800000E2B6E800E2C6EBF0E2D6E2AC01AF046
:102768002BC01BF02CC01CF02DC01DF01200096EF0
:102778000950D8B4C2EF13F0C4EF13F0E6EF13F02A
:1027880004BECBEF13F0C9EF13F0E6EF13F001C06E
:1027980005F002C006F003C007F004C008F0051EEB
:1027A800061E071E081E052A000E062207220822FA
:1027B80005C00BF006C00CF007C00DF008C00EF005
:1027C800EEEF13F001C00BF002C00CF003C00DF0E7
:1027D80004C00EF00150021003100410D8A4F7EF43
:1027E80013F0F9EF13F003EF14F0000E016E000E72
:1027F800026E000E036E000E046E94EF14F0960E37
:102808000A6E0DEF14F00A2AD8900E320D320C32EF
:102818000B32000E0B14056E000E0C14066E000E23
:102828000D14076EFE0E0E14086E055006100710E4
:102838000810D8A422EF14F024EF14F007EF14F0D6
:1028480032EF14F00A2A010E0B26000E0C220D227C
:102858000E22D8900E320D320C320B32000E0B14B1
:10286800056E000E0C14066E000E0D14076EFF0E9A
:102878000E14086E0550061007100810D8A447EF6C
:1028880014F049EF14F026EF14F051EF14F00A0693
:10289800D8900B360C360D360E360DBE56EF14F0AA
:1028A80058EF14F060EF14F0020E0A605EEF14F0B7
:1028B80060EF14F04BEF14F00AB065EF14F067EF17
:1028C80014F068EF14F00D9ED8900A320AC005F093
:1028D800066A076A086A05C008F0076A066A056A90
:1028E80005500B1206500C1207500D1208500E120C
:1028F8000950D8B482EF14F084EF14F08CEF14F080
:1029080004BE8BEF14F089EF14F08CEF14F00E8EE8
:102918000BC001F00CC002F00DC003F00EC004F0B3
:102928001200000E166E000E156E000E0F6E000ED1
:102938000E6EA1EF14F0084A092A010E146E08C0A1
:10294800F6FF09C0F7FF0800F550200AD8B4AFEF2A
:1029580014F0B1EF14F0CEEF14F0F70E0A6EFF0E7C
:102968000B6E08C0F6FF09C0F7FF0800F5500C6EA3
:102978000D6A0A500C260B500D220D5009E1050E68
:102988000C5CD8A0CAEF14F0CCEF14F0CEEF14F022
:10299800000E146E14C010F0116A10501110D8A453
:1029A800D8EF14F0DAEF14F09FEF14F0E4EF14F01E
:1029B800000E0F6E010E0E6E084A092A19EF15F067
:1029C80008C0F6FF09C0F7FF0800F5500A6E0B6A49
:1029D8000B50000AD8B4F3EF14F019EF15F00A50B1
:1029E8002B0AD8B4E0EF14F0060AD8B4DCEF14F0E0
:1029F80019EF15F015C001F016C002F0000E046EB4
:102A08000A0E036E5EEC1CF008C0F6FF09C0F7FF63
:102A18000800F550015E000E025A300E0124156EB2
:102A2800000E0220166EE0EF14F0D00E0A6EFF0EB4
:102A38000B6E08C0F6FF09C0F7FF0800F5500C6ED2
:102A48000D6A0A500C260B500D220D500AE10A0E91
:102A58000C5CD8A032EF15F035EF15F0010E36EF0B
:102A680015F0000E126E136A12501310D8A43FEF1F
:102A780015F041EF15F0FEEF14F00E500F10D8A42A
:102A880048EF15F04AEF15F058EF15F015C00AF0A9
:102A980016C00BF00A1E0B1E0A4A0B2A0AC008F0C1
:102AA8000BC009F05CEF15F015C008F016C009F06E
:102AB800120049EC1CF075EC1AF0000E956E000E31
:102AC800946E000E37EC1BF001C0C0F002C0C1F0DC
:102AD8000A0E0001B46F280EB56FA00EB66F3B0E3C
:102AE800B76FC0C001F0C1C002F0036A046A000EEB
:102AF800BBEC13F001C00FF002C010F003C011F0DE
:102B080004C012F0B4C013F0B5C014F0B6C015F08C
:102B1800B7C016F0D0EC0EF00FC0B0F010C0B1F096
:102B280011C0B2F012C0B3F0C20E0001986F000ECF
:102B3800996F010E9A6F080E9B6FB0C09CF0B1C0E0
:102B48009DF0B2C09EF0B3C09FF0A0EC1AF0000E4A
:102B5800066E000E056E000E086E000E076E19EC6C
:102B68001CF0C20E056E000E066E31EC1CF0030E52
:102B78005F6E8A0E5E6E560EE82EFED75E2EFCD76E
:102B88005F2EFAD7010E37EC1BF001C0C0F002C06F
:102B9800C1F00A0E0001B46F280EB56FA00EB66F13
:102BA8003B0EB76FC0C001F0C1C002F0036A046AEF
:102BB800000EBBEC13F001C00FF002C010F003C010
:102BC80011F004C012F0B4C013F0B5C014F0B6C0D0
:102BD80015F0B7C016F0D0EC0EF00FC0B0F010C072
:102BE800B1F011C0B2F012C0B3F0C20E0001986F7C
:102BF800000E996F0A0E9A6F080E9B6FB0C09CF07A
:102C0800B1C09DF0B2C09EF0B3C09FF0A0EC1AF026
:102C1800000E066E010E056E000E086E000E076EA1
:102C280019EC1CF0C20E056E000E066E31EC1CF09D
:102C380065EF15F000EF00F0033404340A6E0A5013
:102C4800D8A429EF16F02BEF16F035EF16F0000E8A
:102C5800016E000E026E000E036E000E046EA2EFEF
:102C680016F001C005F002C006F003C007F004C06A
:102C780008F0200E45EF16F0D890083207320632D9
:102C88000532E82E40EF16F00550096E038EFF0E50
:102C98000116FF0E0216FF0E0316000E0416960EFE
:102CA8000A5E0ABE5CEF16F05AEF16F072EF16F0E5
:102CB8000A50800A970FD8B064EF16F066EF16F046
:102CC80068EF16F02BEF16F0D89004320332023278
:102CD80001320A3E68EF16F08AEF16F01F0E0A64FA
:102CE80078EF16F07AEF16F082EF16F02BEF16F069
:102CF800D89001360236033604360A060A50D8A49C
:102D080088EF16F08AEF16F07CEF16F00950D8B469
:102D180090EF16F092EF16F09AEF16F0041E031ECD
:102D2800021E016C000E02220322042201C001F0DF
:102D380002C002F003C003F004C004F01200000E49
:102D48002814306E000E2914316E800E2A14326E4B
:102D58007F0E2B14336E3050311032103310D8A43C
:102D6800B8EF16F0BAEF16F0C2EF16F0000E286EA4
:102D7800000E296E000E2A6E000E2B6E000E2C140B
:102D8800306E000E2D14316E800E2E14326E7F0EB2
:102D98002F14336E3050311032103310D8A4D7EFBF
:102DA80016F0D9EF16F0E1EF16F0000E2C6E000EBB
:102DB8002D6E000E2E6E000E2F6E2BAEE6EF16F067
:102DC800E8EF16F0F1EF16F0286C291ED8B0292A82
:102DD8002A1ED8B02A2A800E2B562FAEF6EF16F0F0
:102DE800F8EF16F001EF17F02C6C2D1ED8B02D2A35
:102DF8002E1ED8B02E2A800E2F56000E281A000E2E
:102E0800291A000E2A1A800E2B1A000E2C1A000EF0
:102E18002D1A000E2E1A800E2F1A2C50285C2D50B9
:102E280029582E502A582F502B58D8B01EEF17F07B
:102E380020EF17F023EF17F0D89024EF17F0D88081
:102E48001200ACC00BF0ADC00CF0AEC00DF0AFC0BE
:102E58000EF001C00BF002C00CF003C00DF004C06E
:102E68000EF00BC005F00CC006F00DC007F00EC048
:102E780008F0180E45EF17F0D890083207320632DE
:102E88000532E82E40EF17F00550096E0A6A09501E
:102E98000A10D8A452EF17F054EF17F074EF17F098
:102EA800D8900B34056E0C34066E0D34076E0E3454
:102EB800086E0550061007100810D8A466EF17F022
:102EC80068EF17F06EEF17F0000E026E020E016E3B
:102ED800A3EF17F0000E026E030E016EA3EF17F0BA
:102EE80009280A10D8A47BEF17F07DEF17F09FEFA1
:102EF80017F00BC005F00CC006F00DC007F00EC0AF
:102F080008F0090ED8900536063607360836E82E3A
:102F180086EF17F00550061007100810D8B497EF81
:102F280017F09AEF17F0010E9BEF17F0000E016EE5
:102F3800026AA3EF17F0000E026E040E016E120073
:102F480001C008F002C009F003C00AF004C00BF089
:102F58000506D8A00606052806E10628D8A4B7EF76
:102F680017F0B9EF17F0C6EF17F0000E026E000E5B
:102F7800016E0EEF18F0084A092A0A4A0B2A0506BC
:102F8800D8A0060608C0D9FF09C0DAFFDF50D8B4B8
:102F9800D0EF17F0D2EF17F0FDEF17F00AC0F6FFE9
:102FA8000BC0F7FF0800F5500009D8B4DEEF17F0A2
:102FB800E0EF17F0FDEF17F005500610D8B4E7EF73
:102FC80017F0E9EF17F0FDEF17F008C0D9FF09C0B7
:102FD800DAFFDF50076E0AC0F6FF0BC0F7FF0800E4
:102FE800F5500718D8B4FBEF17F0FDEF17F0BFEF57
:102FF80017F008C0D9FF09C0DAFFDF50076E0AC012
:10300800F6FF0BC0F7FF0800F550075C016E026A77
:10301800D8A00206120003500410D8B416EF18F016
:1030280018EF18F021EF18F003500410D8A41FEF80
:1030380018F021EF18F026EF18F0015082EC1CF080
:1030480073EF18F020EE04F00350D9260450DA226A
:10305800DE50DE10D8B433EF18F035EF18F050EF2B
:1030680018F020EE04F00350D9260450DA2210EEAE
:1030780002F00350E1260450E222DE50E65CE650FE
:10308800800A096EDE50800A0958D8B04EEF18F051
:1030980050EF18F073EF18F020EE02F00350D92625
:1030A8000450DA22DECF05F0DDCF06F003C0D9FFE9
:1030B80004C0DAFFDECF07F0DDCF08F005500724A3
:1030C800D96E06500820DA6E01C0DFFF20EE02F04C
:1030D8000350D9260450DA22DE2A000EDD2212001F
:1030E8000001BEA17AEF18F07CEF18F086EF18F017
:1030F80013C00AF014C00BF011C00CF012C00DF090
:1031080015EC1BF016BE8BEF18F08DEF18F093EF4F
:1031180018F015C01AF016C01BF097EF18F0000E43
:103128001B6E000E1A6E000E196E000E186EA9EFB7
:1031380018F0000E026E200E016E11C003F012C0CE
:1031480004F00FEC18F0184A192A1A50185C195094
:10315800800A176E1B50800A1758D8A0B6EF18F0CF
:10316800B8EF18F09DEF18F00001BEB1BEEF18F0EF
:10317800C0EF18F0CAEF18F013C00AF014C00BF033
:1031880011C00CF012C00DF015EC1BF013C001F0CB
:1031980014C002F0CCEC1BF01A500124116E1B5025
:1031A8000220126E1200000E066E04BEE0EF18F048
:1031B800DEEF18F0E6EF18F0036C041ED8B0042A0E
:1031C800010E066E02BEEDEF18F0EBEF18F0F3EF0C
:1031D80018F0016C021ED8B0022A010E061A000E61
:1031E800086E000E076E03500410D8B4FEEF18F0F6
:1031F80000EF19F028EF19F0010E056E08EF19F02D
:10320800D89003360436052A04AE0DEF19F00FEFF7
:1032180019F004EF19F0D890073608360350015C0E
:1032280004500258D8A01BEF19F01DEF19F022EF37
:1032380019F00350015E0450025A0780D8900432F6
:103248000332052E0FEF19F00650D8B42EEF19F0FF
:1032580030EF19F034EF19F0076C081ED8B0082ABF
:1032680007C001F008C002F01200000E066E02BE90
:1032780042EF19F040EF19F048EF19F0016C021E07
:10328800D8B0022A010E066E04BE4FEF19F04DEFBA
:1032980019F053EF19F0036C041ED8B0042A035038
:1032A8000410D8B45AEF19F05CEF19F080EF19F058
:1032B800010E056E64EF19F0D89003360436052A1E
:1032C80004AE69EF19F06BEF19F060EF19F00350D5
:1032D800015C04500258D8A074EF19F076EF19F089
:1032E8007AEF19F00350015E0450025AD890043264
:1032F8000332052E6BEF19F00650D8B486EF19F09B
:1033080088EF19F08CEF19F0016C021ED8B0022A70
:1033180001C001F002C002F01200000E0114096E93
:10332800000E02140A6E800E03140B6E7F0E041436
:103338000C6E09500A100B100C10D8A4A6EF19F047
:10334800A8EF19F0B0EF19F0000E016E000E026E32
:10335800000E036E000E046E000E0514096E000EBA
:1033680006140A6E800E07140B6E7F0E08140C6E7E
:1033780009500A100B100C10D8A4C5EF19F0C7EFAC
:1033880019F0CFEF19F0000E056E000E066E000E54
:10339800076E000E086E055001180FE1065002185E
:1033A8000CE10750031809E108500418D8B4DFEFFE
:1033B80019F0E1EF19F0E4EF19F0D890E5EF19F002
:1033C800D880120058C05CF059C05DF0000E0001B2
:1033D800B96F000EB86F04EF1AF056C040F057C02E
:1033E80041F05C0E426E000E436E5AC044F05BC062
:1033F80045F0A0EC0CF040500001B8274150B9232B
:103408005CC0F6FF5DC0F7FF0800F5500009D8A4BE
:1034180010EF1AF012EF1AF0F1EF19F0B8C056F0E9
:10342800B9C057F01200BF0E096EFF0E0A6E07C032
:103438000BF008C00CF009500B260A500C220C5057
:103448000AE11A0E0B5CD8A02CEF1AF02FEF1AF035
:10345800010E30EF1AF0000E0D6E0E6A0D500E10B0
:10346800D8B439EF1AF03BEF1AF042EF1AF0200EF9
:103478000710076E0850086E46EF1AF007C007F0ED
:1034880008C008F0120003C007F004C008F001C02B
:1034980009F002C00AF00750056E0850066E074A88
:1034A800082A05C0F6FF06C0F7FFF86A09C0D9FF69
:1034B8000AC0DAFF094A0A2A070EF76403D008008F
:1034C800F55005D0F6CFE1FFF7CFE2FFE750DF6E0A
:1034D800DF50D8A472EF1AF074EF1AF04FEF1AF019
:1034E8001200000E956E820E056EDE0EE82EFED7D7
:1034F800052EFCD7300EE7EC1BF0210E056E760E7C
:10350800E82EFED7052EFCD700D0300EE7EC1BF0D6
:10351800A60EE82EFED700D0320EE7EC1BF0280EE0
:10352800E7EC1BF00C0EE7EC1BF0010EE7EC1BF0D0
:10353800060EE7EC1BF012009C0E0001A06F000EB7
:10354800A16F98C0A2F099C0A3F0000EA56F000E5D
:10355800A46F000EA76F000EA66FA20E566E000E87
:10356800576E9AC058F09BC059F0A00E5A6E000EC4
:103578005B6EE6EC19F00001A4519825D96EA551AF
:103588009921DA6E000EDF6E1200010E076E200E12
:1035980001180210D8B4D3EF1AF0D5EF1AF0EEEFF5
:1035A8001AF0F70E036EFF0E046E01C005F002C09C
:1035B80006F00350052604500622065009E1050EC0
:1035C800055CD8A0EAEF1AF0ECEF1AF0EEEF1AF06B
:1035D800000E076E07C001F0026A1200000E2C1AD6
:1035E800000E2D1A000E2E1A800E2F1A28C001F078
:1035F80029C002F02AC003F02BC004F02CC005F04B
:103608002DC006F02EC007F02FC008F040EC0AF0DD
:1036180001C028F002C029F003C02AF004C02BF032
:103628001200000E106E000E0F6E26EF1BF00EC07B
:1036380001F0026A0CC003F00DC004F00FEC18F0A2
:103648000F4A102A0F500A24D96E10500B20DA6E38
:10365800DF500E6E0E50D8A434EF1BF036EF1BF07F
:103668001BEF1BF01200046E0C0E04643EEF1BF0FF
:1036780040EF1BF042EF1BF0000E046E04C003F095
:1036880003460346C2500318C30B0318C26EC28216
:10369800C2A251EF1BF053EF1BF04CEF1BF0C3CF4E
:1036A80001F0C4CF02F0120001040210D8A45FEFA9
:1036B8001BF061EF1BF064EF1BF08C8465EF1BF0CF
:1036C8008C94070E036E7D0EE82EFED7032EFCD7D2
:1036D80000F08C86070E036E7D0EE82EFED7032EB3
:1036E800FCD700F08C961200BF0E036EFF0E046E1E
:1036F80001C005F002C006F003500526045006225A
:1037080006500AE11A0E055CD8A08DEF1BF090EF69
:103718001BF0010E91EF1BF0000E016E026A120001
:103728000150021003100410D8B49DEF1BF09FEF56
:103738001BF0A7EF1BF0000E011A000E021A000E74
:10374800031A800E041A01C001F002C002F003C07F
:1037580003F004C004F01200D00E036EFF0E046ED6
:1037680001C005F002C006F00350052604500622E9
:1037780006500AE10A0E055CD8A0C5EF1BF0C8EF99
:103788001BF0010EC9EF1BF0000E016E026A120059
:1037980001C003F002C004F0D4EF1BF0014A022A72
:1037A80001C0D9FF02C0DAFFDF50D8A4DEEF1BF05A
:1037B800E0EF1BF0D2EF1BF00350015C016E0450E8
:1037C8000258026E1200046E030E8C160450F00BA1
:1037D8008C12000E026E000E016E58EC1BF0030EE8
:1037E8008C160438F00BF00B8C12000E026E000ED3
:1037F800016E58EC1BF01200046E030E8C16045078
:10380800F00B8C12000E026E010E016E58EC1BF0CC
:10381800030E8C160438F00BF00B8C12000E026E9F
:10382800010E016E58EC1BF0120006BE24EF1CF0CE
:10383800065008E10504D8A024EF1CF026EF1CF080
:103848002CEF1CF00750C00FE7EC1BF030EF1CF01A
:103858000750800FE7EC1BF012003CEF1CF005C08E
:10386800D9FF06C0DAFFDF5000EC1CF0054A062A33
:1038780005C0D9FF06C0DAFFDF50D8A446EF1CF018
:1038880048EF1CF033EF1CF0120092809282C15076
:10389800F00B0D09C16EC19AC198C30EC216C05073
:1038A800F80B0509C06EC050C70B1009C06EC08E5A
:1038B800C280120001500302F3CF05F0F4CF06F0E6
:1038C80001500402F350062602500302F350062664
:1038D80005C001F006C002F0120001EE00F0500E23
:1038E800EE6AE806FDE100EEA8F0240EEE6AE806AE
:0E38F800FDE1000EF86E00015DEF15F012000C
:020000040020DA
:08000000FFFFFFFFFFFFFFFF00
:020000040030CA
:0E000000008C181EFF8180FF0FC00FE00F4024
:00000001FF
