:020000040000FA
:040000002EEF00F0EF
:0600080010820EED05F070
:100018001080D8CF02F0E8CF03F0E0CF04F03C0E18
:10002800D66E8CB01AEF00F01DEF00F0010E1EEF37
:1000380000F0000EFF0A016E8C500118FE0B01182B
:100048008C6EF29404C0E0FF03C0E8FF02C0D8FF42
:0800580010901000FEEF04F00F
:0708000000486F6C6100006D
:10080800000E956E06EC05F041EC04F0F1EC04F0F6
:100818002AEF04F0000E0A6E000E096E000E0C6E30
:10082800000E0B6ED9EC04F0010E096E080E0A6E6C
:100838008CEC04F0D58E2AEF04F0010EA7EC04F03E
:10084800D59E8C90000E0F6E2AEF04F00F500D6E9F
:100858000E6A0E50000AD8B434EF04F02AEF04F000
:100868000D50010AD8B40EEF04F0030AD8B421EFF2
:1008780004F02AEF04F02EEF00F0000E956E820EC1
:10088800096EDE0EE82EFED7092EFCD7300EA7EC37
:1008980004F0210E096E760EE82EFED7092EFCD73D
:1008A80000D0300EA7EC04F0A60EE82EFED700D03C
:1008B800320EA7EC04F0280EA7EC04F00C0EA7ECFF
:1008C80004F0010EA7EC04F0060EA7EC04F01200E9
:1008D80005040610D8A473EF04F075EF04F078EF60
:1008E80004F08C8479EF04F08C94070E076E7D0E6B
:1008F800E82EFED7072EFCD700F08C86070E076E71
:100908007D0EE82EFED7072EFCD700F08C9612003D
:1009180098EF04F009C0F6FF0AC0F7FF0800F55089
:10092800C0EC04F0094A0A2A09C0F6FF0AC0F7FF1A
:100938000800F5500009D8A4A4EF04F0A6EF04F0CD
:100948008EEF04F01200086E030E8C160850F00BA0
:100958008C12000E066E000E056E6CEC04F0030E91
:100968008C160838F00BF00B8C12000E066E000E79
:10097800056E6CEC04F01200086E030E8C1608501D
:10098800F00B8C12000E066E010E056E6CEC04F076
:10099800030E8C160838F00BF00B8C12000E066E46
:1009A800010E056E6CEC04F012000ABEE4EF04F0D0
:1009B8000A5008E10904D8A0E4EF04F0E6EF04F0D7
:1009C800ECEF04F00B50C00FA7EC04F0F0EF04F0CC
:1009D8000B50800FA7EC04F01200D59ED59AD58C49
:1009E800D596D584D582D5803C0ED66EF28AF294FF
:1009F800F19412000F6A10901092000EF86E000128
:100A080004EF04F09380F288F292F19CD08EF28E7B
:0E0A1800F28C120006000F2AF29210921100CA
:020000040020DA
:08000000FFFFFFFFFFFFFFFF00
:020000040030CA
:0E000000008C181EFF8180FF0FC00FE00F4024
:00000001FF
