:020000040000FA
:0400000027EF00F0F6
:060008001682ADED00F0D0
:100018001680D8CF11F0E8CF12F0E0CF13F0F0A09F
:1000280018EF00F01AEF00F01FEF00F0000E106E4E
:10003800020E0F6EF09013C0E0FF12C0E8FF11C06F
:10004800D8FF1690100092EF00F0BCEC00F0000E04
:10005800956E929092920F041010D8A436EF00F08B
:1000680038EF00F061EF00F0000E0E6E000E0D6E1E
:100078008980010E0D24D96E000E0E20DA6EDF5035
:100088008C6E030E156E8A0E146E560EE82EFED771
:10009800142EFCD7152EFAD789900D4A0E2A0EBEBB
:1000A8005FEF00F00E5009E10A0E0D5CD8A05FEF7B
:1000B80000F061EF00F03CEF00F0020E0F18101096
:1000C800D8A469EF00F06BEF00F02FEF00F0000EFE
:1000D8000C6E090E0B6E8982010E0B24D96E000E70
:1000E8000C20DA6EDF508C6E030E156E8A0E146EBD
:1000F800560EE82EFED7142EFCD7152EFAD7899265
:100108000B06D8A00C060CBE8EEF00F08CEF00F0AA
:100118006FEF00F02FEF00F027EF00F0920EF66E71
:10012800010EF76E000EF86E00EE01F010EE0AF008
:100138000900F5CFEEFFE550E150FAE1106A0F6AC9
:100148000E6A0D6A0C6A0B6A16901692000129EF66
:1001580000F00600F2A2B3EF00F0B5EF00F0BAEF3E
:1001680000F0000E106E010E0F6EF2921692110042
:1001780093809382F288F086F292F090F09CF19C42
:10018800F19AD08EF28EF28C12003F065B4F666DAC
:040198007D077F67F9
:020000040020DA
:08000000FFFFFFFFFFFFFFFF00
:020000040030CA
:0E000000008C181EFF8180FF0FC00FE00F4024
:00000001FF
