:020000040000FA
:040000001CEF00F001
:0600080002822CED00F065
:100018000280E0CF01F0F0A214EF00F016EF00F03C
:1000280018EF00F08C80F09201C0E0FF0290100001
:1000380038EF00F093829384F086F088F090F09285
:10004800F08CF09EF19CF19AD08EF28EF28C120018
:100058000600F0A032EF00F034EF00F036EF00F0C9
:100068008C90F090029211000290029200013DEFF4
:0C00780000F01EEC00F095901CEF00F072
:020000040020DA
:08000000FFFFFFFFFFFFFFFF00
:020000040030CA
:0E000000008C181EFF8180FF0FC00FE00F4024
:00000001FF
