:020000040000FA
:0400000080EF3BF062
:1076AE0001000C0ECB6E000EBE6EBD50CF0B10093E
:1076BE00BD6E9494CA50FC0B0209CA6ECA84BD50AA
:1076CE00F00B0C09BD6E120092809282C150F00B2D
:1076DE000D09C16EC19AC198C30EC216C050F80BE7
:1076EE000509C06EC050C70B1009C06EC08EC28097
:1076FE001200AE0EF66E760EF76E000EF86E0900E4
:10770E00F5CF50F00900F5CF51F000EE3CF0140E1D
:10771E00EE6AE806FDE100011AEF3CF0046E030E7E
:10772E008C160450F00B8C12000E026E000E016EC1
:10773E00AEEC3BF0030E8C160438F00BF00B8C12F3
:10774E00000E026E000E016EAEEC3BF01200010454
:10775E000210D8A4B5EF3BF0B7EF3BF0BAEF3BF019
:10776E008C84BBEF3BF08C94070E036E7D0EE82EDF
:10777E00FED7032EFCD700F08C86070E036E7D0E0F
:10778E00E82EFED7032EFCD700F08C961200046E66
:10779E000C0E0464D5EF3BF0D7EF3BF0D9EF3BF086
:1077AE00000E046E04C003F003460346C2500318D5
:1077BE00C30B0318C26EC282C2A2E8EF3BF0EAEF1F
:1077CE003BF0E3EF3BF0C3CF01F0C4CF02F0120069
:1077DE00000E956E820E056EDE0EE82EFED7052E7D
:1077EE00FCD7300E95EC3BF0210E056E760EE82E92
:1077FE00FED7052EFCD700D0300E95EC3BF0A60E32
:10780E00E82EFED700D0320E95EC3BF0280E95EC0C
:10781E003BF00C0E95EC3BF0010E95EC3BF0060E9A
:10782E0095EC3BF012006BEC3BF0EFEC3BF058ECC0
:10783E003BF0000E956E000E946E000E386E000E2C
:10784E00396E480E3A6E3D0E3B6E38C017F039C099
:10785E0018F03AC019F03BC01AF0000ECEEC3BF017
:10786E0001C005F002C006F0076A086A000E11ECAE
:10787E003DF005C013F006C014F007C015F008C0A7
:10788E0016F0EBEC3DF013C02CF014C02DF015C02B
:10789E002EF016C02FF08EEC3CF02CC04EF02DC00A
:1078AE004FF04F5009E1330E4E5CD8A061EF3CF023
:1078BE0063EF3CF067EF3CF0000E4F6E310E4E6EF4
:1078CE004E504F10D8A46EEF3CF070EF3CF074EFBA
:1078DE003CF0000E4F6E010E4E6E4EC036F04FC095
:1078EE0037F0D89037323632D8903732363236506B
:1078FE00BE6E4EC036F0030E3616363ABD503618F2
:10790E00CF0B3618BD6E2CEF3CF000EF00F02E348E
:10791E002F34356E3550D8A497EF3CF099EF3CF0EC
:10792E00A3EF3CF0000E2C6E000E2D6E000E2E6E90
:10793E00000E2F6E10EF3DF02CC030F02DC031F048
:10794E002EC032F02FC033F0200EB3EF3CF0D890A3
:10795E003332323231323032E82EAEEF3CF030502C
:10796E00346E2E8EFF0E2C16FF0E2D16FF0E2E16BB
:10797E00000E2F16960E355E35BECAEF3CF0C8EFE0
:10798E003CF0E0EF3CF03550800A970FD8B0D2EFC4
:10799E003CF0D4EF3CF0D6EF3CF099EF3CF0D890B1
:1079AE002F322E322D322C32353ED6EF3CF0F8EF00
:1079BE003CF01F0E3564E6EF3CF0E8EF3CF0F0EFE4
:1079CE003CF099EF3CF0D8902C362D362E362F36D3
:1079DE0035063550D8A4F6EF3CF0F8EF3CF0EAEF60
:1079EE003CF03450D8B4FEEF3CF000EF3DF008EF21
:1079FE003DF02F1E2E1E2D1E2C6C000E2D222E2223
:107A0E002F222CC02CF02DC02DF02EC02EF02FC00A
:107A1E002FF012000D6E0D50D8B418EF3DF01AEF86
:107A2E003DF03CEF3DF008BE21EF3DF01FEF3DF085
:107A3E003CEF3DF005C009F006C00AF007C00BF0A0
:107A4E0008C00CF0091E0A1E0B1E0C1E092A000E81
:107A5E000A220B220C2209C00FF00AC010F00BC034
:107A6E0011F00CC012F044EF3DF005C00FF006C04F
:107A7E0010F007C011F008C012F0055006100710E4
:107A8E000810D8A44DEF3DF04FEF3DF059EF3DF00B
:107A9E00000E056E000E066E000E076E000E086ECE
:107AAE00EAEF3DF0960E0E6E63EF3DF00E2AD89083
:107ABE001232113210320F32000E0F14096E000EF8
:107ACE0010140A6E000E11140B6EFE0E12140C6EB4
:107ADE0009500A100B100C10D8A478EF3DF07AEF75
:107AEE003DF05DEF3DF088EF3DF00E2A010E0F26C2
:107AFE00000E102211221222D890123211321032A0
:107B0E000F32000E0F14096E000E10140A6E000EC6
:107B1E0011140B6EFF0E12140C6E09500A100B107E
:107B2E000C10D8A49DEF3DF09FEF3DF07CEF3DF0A3
:107B3E00A7EF3DF00E06D8900F36103611361236DE
:107B4E0011BEACEF3DF0AEEF3DF0B6EF3DF0020EE4
:107B5E000E60B4EF3DF0B6EF3DF0A1EF3DF00EB08C
:107B6E00BBEF3DF0BDEF3DF0BEEF3DF0119ED89066
:107B7E000E320EC009F00A6A0B6A0C6A09C00CF0CC
:107B8E000B6A0A6A096A09500F120A5010120B503A
:107B9E0011120C5012120D50D8B4D8EF3DF0DAEF8E
:107BAE003DF0E2EF3DF008BEE1EF3DF0DFEF3DF0DE
:107BBE00E2EF3DF0128E0FC005F010C006F011C0BE
:107BCE0007F012C008F012001650800B1F6E1650F0
:107BDE001624256E15AEF6EF3DF0F8EF3DF0F9EFF9
:107BEE003DF025802550D8B4FFEF3DF001EF3EF07B
:107BFE0014EF3EF02528D8A407EF3EF009EF3EF033
:107C0E0011EF3EF0000E136E000E146E000E156E88
:107C1E00000E166E158E1CEF3EF0000E136E000E4B
:107C2E00146E000E156E000E166E1A50800B1F1A73
:107C3E001A501A24246E19AE27EF3EF029EF3EF0AB
:107C4E002AEF3EF024802450D8B430EF3EF032EFCD
:107C5E003EF045EF3EF02428D8A438EF3EF03AEF40
:107C6E003EF042EF3EF0000E176E000E186E000E44
:107C7E00196E000E1A6E198E4DEF3EF0000E176E35
:107C8E00000E186E000E196E000E1A6E2450D8B427
:107C9E0053EF3EF055EF3EF05DEF3EF02550D8A489
:107CAE005BEF3EF05DEF3EF067EF3EF0000E136EC1
:107CBE00000E146E000E156E000E166EFFEF3FF0E6
:107CCE0019501302F3CF2AF0F4CF2BF02A50206E66
:107CDE00216A226A236A2B50266E276A286A296A2D
:107CEE0018501402F3CF2AF0F4CF2BF02A5020268E
:107CFE00000E2122222223222B502626000E27227E
:107D0E002822292217501502F3CF2AF0F4CF2BF098
:107D1E002A502026000E2122222223222B502626F4
:107D2E00000E27222822292222C023F021C022F071
:107D3E0020C021F0206A17501402F3CF2AF0F4CF9E
:107D4E002BF02A5020262B502122000E2222000E2C
:107D5E00232218501302F3CF2AF0F4CF2BF02A501F
:107D6E0020262B502122000E2222000E232222C07A
:107D7E0023F021C022F020C021F0206A17501302F8
:107D8E00F3CF2AF0F4CF2BF02A5020262B502122AD
:107D9E00000E2222000E232219501402F3CF2AF0D5
:107DAE00F4CF2BF02A5026262B502722000E282205
:107DBE00000E292218501502F3CF2AF0F4CF2BF023
:107DCE002A5026262B502722000E2822000E29226A
:107DDE0019501502F3CF2AF0F4CF2BF02A501B6E58
:107DEE002B501C6E1D6A1E6A1DC01EF01CC01DF09D
:107DFE001BC01CF01B6A1B5026261C5027221D5030
:107E0E0028221E50292220C01BF021C01CF022C0A7
:107E1E001DF023C01EF0190E1AEF3FF0D8901E323F
:107E2E001D321C321B32E82E15EF3FF01B5026265A
:107E3E001C5027221D5028221E50292222C023F01A
:107E4E0021C022F020C021F0206A245025C01BF052
:107E5E001C6A1B26000E1C22820E1B242A6EFF0E8D
:107E6E001C202B6E50EF3FF0D89026362736283642
:107E7E00293623AE45EF3FF047EF3FF048EF3FF096
:107E8E002680D89020362136223623362A06D8A0D0
:107E9E002B0628AE55EF3FF057EF3FF03BEF3FF08C
:107EAE00000E246E23AE5EEF3FF060EF3FF084EFE6
:107EBE003FF0FF0E20141B6EFF0E21141C6EFF0EE2
:107ECE0022141D6E7F0E23141E6E1B501C101D10CF
:107EDE001E10D8B475EF3FF077EF3FF07BEF3FF019
:107EEE00010E246E84EF3FF026A080EF3FF082EF6C
:107EFE003FF084EF3FF077EF3FF02450D8B48AEF95
:107F0E003FF08CEF3FF0B0EF3FF0010E2626000E53
:107F1E0027222822292229A097EF3FF099EF3FF040
:107F2E00B0EF3FF026C01BF027C01CF028C01DF09C
:107F3E0029C01EF01E341E321D321C321B321BC0D5
:107F4E0026F01CC027F01DC028F01EC029F02A4ABA
:107F5E002B2A2BBEBBEF3FF02B5008E12A28D8A0CE
:107F6E00BBEF3FF0BDEF3FF0C7EF3FF0000E266EC8
:107F7E00000E276E800E286E7F0E296EF5EF3FF0F5
:107F8E002BBED4EF3FF02B5006E12A04D8B0D2EF2F
:107F9E003FF0D4EF3FF0E0EF3FF0000E266E000E04
:107FAE00276E000E286E000E296E000E1F6EF5EF66
:107FBE003FF02AC025F0FF0E2616FF0E27167F0E65
:107FCE002816000E291625A0EFEF3FF0F1EF3FF037
:107FDE00F2EF3FF0288ED8902530296E1F502912CF
:107FEE0026C013F027C014F028C015F029C016F0D3
:027FFE0012006F
:020000040020DA
:08000000FFFFFFFFFFFFFFFF00
:020000040030CA
:0E000000008C181EFF8180FF0FC00FE00F4024
:00000001FF
